:1000000012C022C021C020C01FC01EC01DC01CC005
:100010001BC01AC019C018C017C016C015C014C024
:1000200013C012C011C011241FBECFEDCDBF10E010
:10003000A0E6B0E0E6E3F5E002C005900D92A03C3A
:10004000B107D9F7E0D175C2DBCF5D9BFECF8CB98C
:1000500080E090E00895FC0104C05D9BFECF8CB968
:10006000319680818823C9F70895C29820E030E056
:1000700050E061E097FF02C0C49A01C0C498220F0B
:10008000331FB1992160C39A462F4A95F1F7C3985F
:100090005F5F503119F0880F991FECCFC29AC901E8
:1000A000089590E0F5E0880F991FFA95E1F79070B8
:1000B00050E047705070842B952B946970E063700A
:1000C0007070E3E0660F771FEA95E1F7862B972BB8
:1000D000CCDF08958036910518F480E690E006C0E4
:1000E0002FE08034920710F08FE39FE0906ABDDF2D
:1000F000089522E087399207E0F09C0140E050E04B
:100100008851954160F460E678EA80E090E0B3D1F0
:10011000DA01C90101978068966CA7DF08956CEF3A
:1001200072E485E090E085D1DA01C9010197966C0F
:100130009CDF089590E087709070986970E0A4E06B
:10014000660F771FAA95E1F77070862B972B8DDFCE
:1001500008958DE187BBC29AC09A20E040E058E440
:10016000CA010197F1F72F5F2A30D1F780EE90ECAA
:100170007CDF87EE90E879DF8BEA92EC76DF81E82E
:100180009AEC73DF80E090EE70DF80E098EC6DDF3A
:1001900087EF94EC6ADF8BE796E09CDF84E061E018
:1001A00044E07FDF8AE992E0A4DF80E066E0C2DF1E
:1001B0000895CFDF0895C498C298000020E137E287
:1001C00042E007C0882329F021503040942F9A95AF
:1001D000F1F7B19903C021153105A1F7C29A80E06A
:1001E000232B09F081E00895C298C498000026B33B
:1001F00030E03695279521703070C9010895FF923F
:100200000F931F93CF93DF938C01F62E88EC92E827
:100210002CDF81E89AEC29DF83E89AEC26DFE801FD
:1002200006C080E0C8DF80E090EB1FDF89939E016D
:10023000201B2F15B0F388E092E817DFDF91CF91F4
:100240001F910F91FF900895CF93DF93EC0181E010
:10025000B2DF882329F080E090EB07DF888381E01C
:10026000DF91CF9108950F931F9388EC92E8FDDE04
:1002700000E018E4C8010197F1F781E89AECF5DE97
:10028000C8010197F1F783E89AECEFDEC801019706
:10029000F1F71F910F91089588E092E8E6DE089546
:1002A0000F931F93CF93DF93EC018B0180E090E0DD
:1002B000DCDEF80180839183292F26952095022F7B
:1002C000017020FF04C080E090EBCFDE8883802F98
:1002D00090E0DF91CF911F910F91089580E090E021
:1002E000C4DE0895AF92BF92CF92DF92EF92FF9259
:1002F0000F931F93DF93CF93CDB7DEB7C455D04094
:100300000FB6F894DEBF0FBECDBF80E090E0ADDE4B
:1003100096FF03C080E690E004C095FF05C081E72A
:1003200090E099DE16DF5DC091FD5BC025E1A22E55
:10033000B12CAC0EBD1E7501CC24DD24F70110825A
:10034000C70182DF898D853651F0863618F48435F1
:1003500061F408C0883648F403E110E008C009E001
:1003600010E005C009E110E002C006E010E00894CA
:10037000C11CD11C0894E11CF11CC016D106F0F27E
:100380008BDF88E18A95F1F76EDF0630110549F1C0
:1003900087E890E060DE95E1E92EF12CEC0EFD1E81
:1003A000E00EF11E8E010F5F1F4F80E3D82E13C0A9
:1003B000F501808190E0B80140E150E077D0F5018F
:1003C0008081803118F45D9BFECFDCB8C80143DE2C
:1003D0000894A11CB11CAE14BF0451F78BE890E047
:1003E0003ADECC5ADF4F0FB6F894DEBF0FBECDBF5A
:1003F000CF91DF911F910F91FF90EF90DF90CF9001
:10040000BF90AF90089512B883E089B9539A86E0FF
:1004100083B98FE890E01FDE86EA90E01CDE99DE6B
:1004200086EB90E018DE8BEF81BB12BA78945ADF2E
:10043000FECFA1E21A2EAA1BBB1BFD010DC0AA1FF5
:10044000BB1FEE1FFF1FA217B307E407F50720F03D
:10045000A21BB30BE40BF50B661F771F881F991FB8
:100460001A9469F760957095809590959B01AC0101
:10047000BD01CF01089597FB092E05260ED057FD2B
:1004800004D0D7DF0AD0001C38F450954095309541
:1004900021953F4F4F4F5F4F0895F6F79095809508
:1004A000709561957F4F8F4F9F4F0895FB019F017E
:1004B000E8944230BCF04532ACF44A3029F497FB62
:1004C0001EF4909581959F4F642F77271ED0805DF5
:1004D0008A330CF0895D8193CB010097A9F716F45C
:1004E0005DE251931082C90100C0DC01FC01672F5D
:1004F00071917723E1F7329704C07C916D937083FB
:100500006291AE17BF07C8F30895AA1BBB1B51E148
:1005100007C0AA1FBB1FA617B70710F0A61BB70B73
:10052000881F991F5A95A9F780959095BC01CD0118
:060530000895F894FFCFCE
:1005360072666D31322F706F72202D20696E69746C
:100546000072666D31322F6F766572666C6F77203A
:100556002D20696E6974000D0A3E000D0A230023E2
:10056600556172742D496E69742E2E2E2072656146
:1005760064790D0A23002352464D31322D496E69A6
:10058600742E2E2E200072656164790D0A230000F8
:00000001FF
